:020000020000FC
:020000001AC024
:020028002EC0E8
:0200240033C0E7
:1000340032C048E04EBF4FEF4DBF40E040938000D8
:1000440045E84093810001E000936F0000E00093D5
:10005400840000E00093850045E04093B10003E094
:100064000093700000E00093B2000FEF07B92098EE
:10007400579A569A33276627CC27789403E108B910
:10008400FECF009186001895B395BF3119F404D0C2
:10009400BB27B395189518955F9A03D002D05F9843
:1000A400089523E033EB3A95F1F72A95E1F70895A3
:00000001FF
