:020000020000FC
:020000001AC024
:02000400A8C092
:02000800A8C08E
:020028004AC0CC
:020024005FC0BB
:1000340063C048E04EBF4FEF4DBF40E040938000A7
:1000440045E04093810000E00093840000E00093C9
:10005400850045E04093B10003E00093700000E0A8
:100064000093B2000FEF07B90FE00093690003E0BB
:100074000DBB209852985398579A569A559A3327FD
:100084006627DD27CC27EE2788277727CC278827E4
:100094005527789400E0EDCFA1E001E200936F00D2
:1000A400E52F863009F459C0E8B9FBCFE2EE00E24F
:1000B40000936F00A2E008B9FDCF009186000051C3
:1000C400A23069F00E1B003041F45D9A5E9801E0A5
:1000D40000936F0073951FD002C05E9A5D981895C7
:1000E400B395BA3719F41FD0BB27B39553955A303B
:1000F40011F45527539518955E985D98703009F45E
:1001040007D0772701E200936F00E52F83951895B8
:10011400CA95D3950895C395C395CA3009F0089537
:10012400CC27C0E108955F9A02D05F98089523E038
:1001340033EB3A95F1F72A95E1F7089523EA37E589
:1001440043E04A95F1F73A95E1F72A95D1F7000093
:1001540008957894ABCF78949FCF789400E000937F
:100164006F00D63029F0D53031F0C8B9E7DF81CF40
:10017400C6E05E9A02C05E9AC3E0C8B9DFDF5E984B
:0201840078CF32
:00000001FF
