:020000020000FC
:020000001AC024
:0200040074C0C6
:0200280036C0E0
:0200240041C0D9
:1000340045C048E04EBF4FEF4DBF40E040938000C5
:1000440045E84093810000E200936F0000E00093D4
:10005400840000E00093850045E04093B10003E094
:100064000093700000E00093B2000FEF07B92098EE
:10007400579A569A559A33276627CC27EE277894B1
:1000840000E001E200936F00E52FE8B9FECF08B964
:10009400FECF78940091860000510E1B003009F4C5
:1000A4005D9A1895B395B03919F414D0BB27B3955C
:1000B40053955B3011F4552753951895E52F1895F2
:1000C400CA950895CA3019F0C395C3950895CC27ED
:1000D400C0E108955F9A02D05F98089523E033EB5E
:0E00E4003A95F1F72A95E1F70895789418956A
:00000001FF
